:100000000C941B040C9443040C9443040C9443047C
:100010000C9443040C9443040C9443040C94E105A5
:100020000C9443040C9443040C9443040C94430434
:100030000C9443040C9443040C9443040C94430424
:100040000C9474130C9443040C941C070C94F60643
:100050000C9443040C9443040C9443040C94430404
:100060000C9443040C9443044E414E494E49545958
:10007000494E46CDCCCC3D0AD7233C17B7D1387773
:10008000CC2B329595E6241FB14F0A000020410089
:1000900000C84200401C4620BCBE4CCA1B0E5AAED3
:1000A000C59D7400407A10F35A00A0724E180900E2
:1000B00010A5D4E80000E87648170000E40B5402CD
:1000C0000000CA9A3B000000E1F505000080969808
:1000D00000000040420F000000A086010000001058
:1000E0002700000000E8030000000064000000009A
:1000F000000A00000000000100000000002C76D87B
:1001000088DC674F0823DFC1DFAE59E1B1B796E560
:10011000E3E453C63AE651997696E8E6C28426EBC4
:10012000898C9B62ED407C6FFCEFBC9C9F40F2BAD7
:10013000A56FA5F490055A2AF75C936B6CF9676D6F
:10014000C11BFCE0E40D47FEF520E6B500D0ED90C4
:100150002E0300943577050080841E080000204E91
:100160000A000000C80C333333330F986E1283112A
:1001700041EF8D2114893BE65516CFFEE6DB18D101
:10018000844B381BF77C1D901DA4BBE424203284D3
:10019000725E228100C9F124ECA1E53D276D6F6EEE
:1001A0005F4572726F725F310063757272656E7453
:1001B0005F484947480063757272656E745F4C4FC3
:1001C000570063757272656E742053656E736F723B
:1001D0000070726573737572655F484947480070B7
:1001E000726573737572655F4C4F570070726573FB
:1001F000737572655F4E4541525F5A45524F0053C9
:10020000544154494F4E5F474F545F495000535437
:100210004154494F4E5F434F4E4E4543545F464114
:10022000494C0053544154494F4E5F4E4F5F41502B
:100230005F464F554E440053544154494F4E5F570B
:10024000524F4E475F50415353574F5244005354FF
:100250004154494F4E5F434F4E4E454354494E47DC
:100260000053544154494F4E5F49444C45000A5392
:100270006B65746368206E616D653A2000454C2D96
:10028000436C69656E742073796E63656421000A3E
:10029000454C2D436C69656E742073796E632066DE
:1002A00061696C656421206572723A2000454C2DAD
:1002B000436C69656E74202872652D2973746172B0
:1002C00074696E6721004D71747420436F6E6E65A2
:1002D00063746564434220697320307800454C2D77
:1002E0004D51545420726561647900444953434F21
:1002F0004E4E454354454400626F6F73746572708F
:10030000756D702F6D7174747374617475730025DD
:100310002D323073200920257320092025642009FF
:10032000092025640D0A00EC01DF01D101C201B6EC
:1003300001A9019D01454550524F4D206973206729
:100340006F6F642C206C6F6164696E6720636F6EE1
:100350006669672066726F6D20454550524F4D00AB
:10036000454550524F4D20697320696E76616C6926
:10037000642C20726573657474696E6720454550FE
:10038000524F4D00436865636B696E672045455069
:10039000524F4D2E2E2E2000536574757020636FC2
:1003A0006D706C657465640057616974696E67206F
:1003B000666F722057694669200061024E0237025B
:1003C00023020E02FF0142414420524553504F4E3A
:1003D000534500474F5420524553504F4E53453AD2
:1003E000200057696669206E6F74207265616479B8
:1003F0002C207374617475733D007265717565733B
:1004000074696E672074696D652E2E2E20000000C1
:100410000000230026002900507265737375726511
:100420003A20004552524F522035205245534F4CEE
:10043000564544004552524F5220352050554D509C
:100440002043414E4E4F542053544F50004552527A
:100450004F522034205245534F4C5645440045528C
:10046000524F5220342043555252454E5420484951
:100470004748004552524F522033205245534F4C6B
:10048000564544004552524F5220332050554D504E
:100490002052554E203E203230206D696E757465B5
:1004A0007321004552524F522032205245534F4C37
:1004B000564544004552524F522032205052455327
:1004C00053555245205354494C4C204C4F570045EE
:1004D00052524F522031205245534F4C5645440002
:1004E00020426172292121004552524F5220312071
:1004F0005052455353555245204E454152205A457E
:10050000524F202800024F56455200554E44455246
:1005100000766F66004E4541525F5A45524F00418A
:10052000424F56450042454C4F57004E4F524D41A9
:100530004C00444953434F4E4E4543544544004DAF
:10054000414E55414C0054494D45204E45454420AF
:1005500053594E430054494D45204E4F5420534566
:1005600054004552524F522D35004552524F522D94
:1005700034004552524F522D33004552524F522DA6
:1005800032004552524F522D31002C2000207C2049
:1005900000257320503A202573204261722C204997
:1005A000726D733A20257320416D700050554D5087
:1005B0005F4F46460050554D505F4F4E002053450B
:1005C000434F4E44530053595354454D2057494CC3
:1005D0004C204245205245534554544544204155F2
:1005E000544F4D41544943414C4C5920494E2000F1
:1005F0004D414E55414C204D4F44452041435449B7
:100600005641544544004155544F4D4154494320AF
:100610004D4F444520414354495641544544002AD6
:100620002A2A2052202045202053202045202054D3
:10063000202A2A2A0043757272656E743A2000637C
:100640006D642F626F6F7374657270756D702F2398
:10065000004D51545420636F6E6E65637465642160
:10066000004D51545420646973636F6E6E656374FA
:10067000656400636D642F626F6F7374657270756B
:100680006D702F757064617465656570726F6D0053
:10069000636D642F626F6F7374657270756D702F08
:1006A000636F6E74726F6C6C65726D6F64650063FE
:1006B0006D642F626F6F7374657270756D702F73D8
:1006C0007461746570756D7000636D642F626F6F17
:1006D0007374657270756D702F63757272656E7468
:1006E0005F4C4F5700636D642F626F6F7374657258
:1006F00070756D702F63757272656E745F484947CF
:100700004800636D642F626F6F7374657270756DEE
:10071000702F70726573737572655F484947480042
:10072000636D642F626F6F7374657270756D702F77
:1007300070726573737572655F4C4F5700636D64BB
:100740002F626F6F7374657270756D702F70726544
:1007500073737572655F4E4541525F5A45524F0043
:10076000636D642F626F6F7374657270756D702F37
:1007700043555252454E545F53454E534F525F4975
:100780004E5354414C4C454400646174613D0052E9
:10079000656365697665643A20746F7069633D00CE
:1007A0007374732F626F6F7374657270756D702FD1
:1007B000737461746570756D7000434F4E4E4543A0
:1007C00054454400256454253032643A253032645F
:1007D0003A253032642000000000080002010000C9
:1007E00003040700000000000000007372635C6DEA
:1007F00061696E2E63707000000000002500280003
:100800002B0000000000240027002A000404040438
:1008100004040404020202020202030303030303AA
:100820000102040810204080010204081020010287
:1008300004081020172311241FBECFEFD8E0DEBF1D
:10084000CDBF23E0A4EAB1E001C01D92A13DB207F3
:10085000E1F711E0A0E0B1E0EAE0FDE502C00590BB
:100860000D92A43AB107D9F714E0CBE1D4E004C06B
:100870002197FE010E94DA2CCA31D107C9F70E94E4
:10088000BE130C94832E0C940000CF92DF92EF9253
:10089000FF920F931F93CF93DF936C017A018B012B
:1008A000C0E0D0E0CE15DF0581F0D8016D918D015B
:1008B000D601ED91FC910190F081E02DC6010995E2
:1008C000892B11F02196EECF7E01C701DF91CF91E8
:1008D0001F910F91FF90EF90DF90CF9008950895B2
:1008E00080E090E00895FC01538D448D252F30E089
:1008F000842F90E0821B930B541710F0CF9608952D
:1009000001970895FC01918D828D981761F0828D79
:10091000DF01A80FB11D5D968C91928D9F5F9F7333
:10092000928F90E008958FEF9FEF0895FC01918DD5
:10093000828D981731F0828DE80FF11D858D90E042
:1009400008958FEF9FEF0895FC01918D228D892FDF
:1009500090E0805C9F4F821B91098F7399270895C7
:1009600080E992E00E94A40421E0892B09F420E0B0
:10097000822F0895FC01848DDF01A80FB11DA35AB9
:10098000BF4F2C91848D90E001968F739927848FAF
:10099000A689B7892C93A089B1898C9183708064D2
:1009A0008C93938D848D981306C00288F389E02D73
:1009B00080818F7D80830895EF92FF920F931F9324
:1009C000CF93DF93EC0181E0888F9B8D8C8D981302
:1009D00005C0E889F989808185FD26C0F62E0B8D3A
:1009E00010E00F5F1F4F0F731127E02E8C8DE81260
:1009F0000CC00FB607FCFACFE889F989808185FF22
:100A0000F5CFCE010E94BA04F1CF8B8DFE01E80F25
:100A1000F11DE35AFF4FF0829FB7F8940B8FEA89DC
:100A2000FB89808180620AC09FB7F894EE89FF89B4
:100A30006083E889F98980818370806480839FBFA7
:100A400081E090E0DF91CF911F910F91FF90EF90A7
:100A50000895CF93DF93EC01888D8823C9F0EA894C
:100A6000FB89808185FD05C0A889B9898C9186FDA7
:100A70000FC00FB607FCF5CF808185FFF2CFA889A4
:100A8000B9898C9185FFEDCFCE010E94BA04E7CFE2
:100A9000DF91CF91089580E090E0892B29F00E94AA
:100AA000B00481110C94000008954627542745276F
:100AB0005427CA01882724E0880F991F2A95E1F757
:100AC00048275927CA01892F992782958F7048276F
:100AD0005927CA01882765E0969587956A95E1F7B9
:100AE000842795270895EF92FF920F931F93CF933A
:100AF000DF937C01C901EB018B01040F151FC017A7
:100B0000D10731F06991AC01C7010E945505F7CFBB
:100B1000DF91CF911F910F91FF90EF900895CF93A8
:100B2000DF93EC018A859B85603CA1F06B3D21F54C
:100B3000DC01ED91FC910190F081E02D6BED0995C8
:100B40008A859B85DC01ED91FC910190F081E02D7F
:100B50006DED18C0DC01ED91FC910190F081E02D6C
:100B60006BED09958A859B85DC01ED91FC910190E7
:100B7000F081E02D6CED06C0DC01ED91FC9101905F
:100B8000F081E02DDF91CF910994EF92FF920F93C6
:100B90001F93CF93DF937C01EB018B01040F151F93
:100BA000C017D10729F06991C7010E948F05F8CFBE
:100BB000DF91CF911F910F91FF90EF9008950E94C8
:100BC000532E1F920F920FB60F9211242F933F9323
:100BD0004F935F936F937F938F939F93AF93BF9345
:100BE000EF93FF938091B5019091B601A091B70169
:100BF000B091B801892B8A2B8B2B59F19091B201BE
:100C0000E091B301F091B4018081892780838091C4
:100C1000B5019091B601A091B701B091B801181635
:100C200019061A061B060CF03DC08091B501909183
:100C3000B601A091B701B091B8010197A109B1091E
:100C40008093B5019093B601A093B701B093B8011A
:100C500029C080910F01E5E0F5E0E4919FEF9093CA
:100C60000F01E130B9F098F0E230C9F490917000D2
:100C70009D7F9093700091E09093B0009091B100AF
:100C8000987F94609093B1001092B30008C01092C6
:100C90006E0005C090916F009D7F90936F0060E0A3
:100CA0000E94D612FF91EF91BF91AF919F918F91CA
:100CB0007F916F915F914F913F912F910F900FBE58
:100CC0000F901F9018956115710579F0FB01019047
:100CD0000020E9F73197AF01461B570BDC01ED917E
:100CE000FC910280F381E02D099480E090E008956A
:100CF0008F929F92AF92BF92EF92FF920F931F93AA
:100D0000CF93DF93CDB7DEB7A1970FB6F894DEBFD0
:100D10000FBECDBF7C01FA01CB0119A2223008F42D
:100D20002AE08E010F5D1F4F822E912CA12CB12C39
:100D3000BF01A50194010E94952CF901CA0101503F
:100D400011096A3014F4605D01C0695CD8016C93CC
:100D5000232B242B252B61F7B801C7010E946306C2
:100D6000A1960FB6F894DEBF0FBECDBFDF91CF9135
:100D70001F910F91FF90EF90BF90AF909F908F9039
:100D8000089567E471E00C9463060F931F93CF936B
:100D9000DF93EC012115310541F4E881F9810190DF
:100DA000F081E02D642F099502C00E9478068C0125
:100DB000CE010E94C106800F911FDF91CF911F913C
:100DC0000F9108950F931F93CF93DF93EC010E942F
:100DD00063068C01CE010E94C106800F911FDF9136
:100DE000CF911F910F9108950C9463061F920F925B
:100DF0000FB60F9211242F933F934F935F936F93EE
:100E00007F938F939F93AF93BF93EF93FF9380E96B
:100E100092E00E94BA04FF91EF91BF91AF919F9130
:100E20008F917F916F915F914F913F912F910F9093
:100E30000FBE0F901F9018951F920F920FB60F9232
:100E400011242F938F939F93EF93FF93E091A00230
:100E5000F091A1028081E091A602F091A70282FDAB
:100E600012C090818091A9028F5F8F732091AA0296
:100E7000821751F0E091A902F0E0E057FD4F958F05
:100E80008093A90201C08081FF91EF919F918F9182
:100E90002F910F900FBE0F901F901895AF92BF9299
:100EA000CF92DF92EF92FF920F931F93CF93DF9336
:100EB0006B0124E0C20ED11CEB0100E010E05C01EC
:100EC000A61AB70A7501EC0EFD1EC7010E94052C7B
:100ED0006991861729F0C7010E941D2C0F5F1F4FD3
:100EE000CC15DD0579F7C801DF91CF911F910F91E6
:100EF000FF90EF90DF90CF90BF90AF9008959C014E
:100F0000CB0144E050E0B9010E94F52B84E090E071
:100F100008950F931F93CF93DF93FC01A281B381B8
:100F20004D915D918EEF9FEF841B950B83709927F8
:100F3000B383A283208131812F5F3F4F3183208390
:100F400020E0C22FD0E0DB01AC0FBD1FC417D507D6
:100F500058F4C281D3818E010F5F1F4F1383028328
:100F600038813C932F5FEDCF1C9222813381820F19
:100F7000931F93838283DF91CF911F910F910895E7
:100F8000CF93DF93EC01BC01635F7F4F42E050E001
:100F90000E94C5058A859B85DC01ED91FC9101903D
:100FA000F081E02D60ECDF91CF910994CF92DF9238
:100FB000EF92FF920F931F93CF93DF9300D0CDB7A3
:100FC000DEB78C017B015A83498342E050E0BE01C9
:100FD0006F5F7F4F0E94C505F8012585368542E089
:100FE00050E0BE016F5F7F4FC8010E947305F8019A
:100FF00096878587C980DA80CE0CDF1CEC14FD044F
:1010000091F0F7016081C8010E948F05F8014585C4
:101010005685F70161917F01C8010E945505F801CD
:1010200096878587EBCFE980FA80F194E194F10807
:10103000F3E0EF22FF2481E0E81AF10878F060E0A5
:10104000C8010E948F05F8014585568560E0C801FA
:101050000E945505F80196878587EDCF0F900F9078
:10106000DF91CF911F910F91FF90EF90DF90CF9084
:101070000895EF92FF920F931F93CF93DF93CDB715
:10108000DEB728970FB6F894DEBF0FBECDBF7C0148
:101090007A8369832B833C834D835E8318870F8318
:1010A000DC011E961C921E921D971A968D919C91A2
:1010B0001B97DC01ED91FC910190F081E02D60EC3B
:1010C000099542E050E0BE016F5F7F4FC7010E946B
:1010D000C505F7012585368542E050E0BE016F5F0A
:1010E0007F4FC7010E947305D7011E969C938E9374
:1010F0001D9742E050E0BE01695F7F4FC7010E942B
:10110000C505F7012585368542E050E0BE01695FDF
:101110007F4FC7010E947305D7011E969C938E9343
:101120001D9744E050E0BE016D5F7F4FC7010E94F4
:10113000C505F7012585368544E050E0BE016D5FA9
:101140007F4FC7010E947305D7011E969C938E9313
:101150001D9728960FB6F894DEBF0FBECDBFDF9166
:10116000CF911F910F91FF90EF9008958F929F92D2
:10117000AF92BF92DF92EF92FF920F931F93CF93A4
:10118000DF9300D000D000D0CDB7DEB78C01DD24D6
:10119000D394D8011A968D919C911B97DC01ED9107
:1011A000FC910084F185E02D0995892B09F47FC11C
:1011B000F80182859385DC01ED91FC910284F38531
:1011C000E02D09958B3D910519F4F801D58AE1CF01
:1011D000D80153962D913C915497803C910509F08C
:1011E00041C12830310508F42EC1F801E784F088A8
:1011F0008485882309F486C06AE471E08081918146
:101200000E94F406D80153964D915C91549760E08A
:1012100070E02AE08D919C910E94780664E571E06F
:10122000F801808191810E94F406D8011F964D91AA
:101230005C915097052E000C660B770B20E18D9189
:101240009C910E94780668E771E0F80180819181A5
:101250000E94F406D7014D915C9160E070E020E1BE
:10126000F801808191810E94780669E771E0D801D8
:101270008D919C910E94F406F7014481558166810D
:10128000778120E1D8018D919C910E94780669E7D1
:1012900071E0F801808191810E94F406D7011296D5
:1012A0004D915C91139760E070E020E1F80180813E
:1012B00091810E94780648E0A42EB12CD801539663
:1012C0002D913C9154978D919C91A216B306C0F438
:1012D00069E771E00E94F406D8011F96ED91FC9138
:1012E0005097EA0DFB1D408150E060E070E020E186
:1012F0008D919C910E947806BFEFAB1ABB0ADECF9E
:101300000E94C106F801A388B488F2E0AF1AB108C0
:10131000D8011F968D909C90509720E030E0A50159
:10132000B401C8010E947305F401EA0DFB1D208180
:1013300031818217930741F0F8018485882309F4ED
:1013400082C067E571E07BC0D7018D919C918230AE
:10135000910539F083309105F1F0019709F069C0EA
:1013600058C0F8018485882309F46FC068E671E0ED
:10137000808191810E94F406D70114964D915D9170
:101380006D917C9117972AE030E0F801808191817E
:101390000E94C5065AC0D8011C968C911C978823C0
:1013A00039F161E771E08D919C910E94F406F7019B
:1013B00044815581668177812AE0D8018D919C9185
:1013C0000E94780669E771E0F801808191810E94AE
:1013D000F406D801AD90BC90F7014281538160E0E2
:1013E00070E02AE0C5010E947806C5010E94C1068E
:1013F000F701A481B5818D919C911197009709F017
:1014000059C012962D913C911397232B09F052C08D
:101410001AC06BE771E0D8018D919C910E94E206A1
:10142000D8011896ED91FC911997309761F00995C4
:101430000AC0F8018485882331F066E871E0808174
:1014400091810E94E206E12CF12CD80154961C9265
:101450001E92539755961C92E114F10409F499CE0B
:10146000C70158C0F8014589442371F08C3D9105AE
:1014700031F08D3D910529F48BED90E002C080ECB8
:1014800090E0D80155961C92F801418952892417A1
:10149000350708F07ECE47855089B9016F5F7F4FD1
:1014A000748B638BFA01E20FF31F808372CE80E0AE
:1014B00090E030C0FE82ED82F8E0EF0EF11CFC827D
:1014C000EB821A8219821296ED91FC911397309754
:1014D00009F4B9CF0097D1F014962D913C9115974E
:1014E000A9015595479520FF0AC0DC01A40FB51F3F
:1014F0002D913C91E20FF31F0190F081E02DBE0190
:101500006F5F7F4F840F951F09959DCFCE01019688
:10151000099599CF26960FB6F894DEBF0FBECDBFC2
:10152000DF91CF911F910F91FF90EF90DF90BF90CF
:10153000AF909F908F9008956093530270935402E0
:101540008093550290935602DC01CB01845D9E4F3F
:10155000AF4FBF4F80934F0290935002A093510220
:10156000B093520282E090E09093BA018093B90167
:101570000E94411360934B0270934C0280934D0282
:1015800090934E020895CF92DF92EF92FF920F93C5
:101590001F930E94411300914B0210914C02209125
:1015A0004D0230914E026B017C01C01AD10AE20A51
:1015B000F30A609153027091540280915502909108
:1015C000560248EEC41643E0D406E104F104D0F01C
:1015D000DC01CB010196A11DB11D809353029093B4
:1015E0005402A0935502B093560208511C4F2F4F3E
:1015F0003F4F00934B0210934C0220934D023093C7
:101600004E02C7CF1F910F91FF90EF90DF90CF90C8
:1016100008954F925F926F927F928F929F92AF92B6
:10162000BF92CF92DF92EF92FF920F931F93CF93CF
:10163000DF934B015C0180916D0290916E02A0914D
:101640006F02B091700288159905AA05BB0509F4CF
:10165000D2C08CE3C82ED12CE12CF12CC501B401F1
:10166000A70196010E94952C60936602CA01B901F8
:10167000A70196010E94952C60936702C501B401F1
:1016800020E13EE040E050E00E94952CCA01B90103
:1016900028E130E040E050E00E94952C6093680221
:1016A000C501B40120E831E541E050E00E94952CED
:1016B00069017A01CA01B9016C5F7F4F8F4F9F4F5B
:1016C00027E030E040E050E00E94952C6F5F60938F
:1016D0006902412C512C320140E004E610E0C0E9DF
:1016E000D1E0242F30E02E54384FF901E370FF276A
:1016F000309789F4C901B8010E94812C892B31F4FB
:10170000C901BE010E94812C892B29F48EE691E04B
:10171000A0E0B0E004C08DE691E0A0E0B0E0480EAB
:10172000591E6A1E7B1ED301C201AA27BB27C816F9
:10173000D906EA06FB0610F04F5FD3CF40936C0248
:10174000309799F4C90164E670E00E94812C892BDE
:1017500039F4C90160E971E00E94812C892B29F4D8
:101760008EE691E0A0E0B0E004C08DE691E0A0E05C
:10177000B0E0481A590A6A0A7B0AC418D508E60874
:10178000F708C90164E670E00E94812CEC01C901F0
:1017900060E971E00E94812CADE1B1E020E02130F0
:1017A00039F4309749F4209729F4009729F402C0BE
:1017B0004C9103C04DE101C04CE150E060E070E0AD
:1017C000C416D506E606F70640F0C41AD50AE60A9E
:1017D000F70A2F5F11962C3011F72F5F20936B02C1
:1017E000C394C0926A0280926D0290926E02A0929F
:1017F0006F02B0927002DF91CF911F910F91FF9015
:10180000EF90DF90CF90BF90AF909F908F907F90A0
:101810006F905F904F9008950895CF93DF93FC01F0
:10182000A481B58112964D915C9113974130510579
:1018300051F580819181892B31F5A281B3818D9100
:101840009D912EEF3FEF281B390B23703327B38375
:10185000A28351834083CFEBD1E0AC018530910569
:1018600010F044E050E041545E4FC417D50719F022
:101870006D916993FACF280F391F82819381280FC8
:10188000391F33832283DF91CF910895CF93DF9364
:10189000CDB7DEB764970FB6F894DEBF0FBECDBFED
:1018A0008091B0019091B10140910B0150910C01D8
:1018B00060910D0170910E0149835A836B837C8383
:1018C000BE016F5F7F4F0E944E078091AE019091E5
:1018D000AF01409114015091150160911601709172
:1018E00017014D835E836F837887BE016B5F7F4FE7
:1018F0000E944E078091AC019091AD014091100182
:1019000050911101609112017091130149875A871A
:101910006B877C87BE01675F7F4F0E944E07609197
:10192000E10170E08091AA019091AB010E94A310A7
:101930008091A8019091A90140910001509101016D
:1019400060910201709103014D875E876F87788BEC
:10195000BE01635F7F4F0E944E078091A601909168
:10196000A701409118015091190160911A017091DD
:101970001B01498B5A8B6B8B7C8BBE016F5E7F4F3B
:101980000E944E076091CF0170E08091A401909178
:10199000A5010E94A31064960FB6F894DEBF0FBE97
:1019A000CDBFDF91CF9108958F929F92AF92BF925A
:1019B000CF92DF92EF92FF920F931F93CF93DF931B
:1019C000CDB7DEB75C018DB69EB6DC011296ED9107
:1019D000FC911397C080D180C60101962DB73EB708
:1019E000281B390B0FB6F8943EBF0FBE2DBF8DB725
:1019F0009EB701967C01BC01C5010E9489078FE852
:101A000097E00E94D810B70180E992E00E94E206B8
:101A1000D5011296ED91FC911397808191810196E9
:101A20002DB73EB7281B390B0FB6F8943EBF0FBE3B
:101A30002DBF0DB71EB70F5F1F4FB801C5010E9424
:101A4000890789E897E00E94D810B80180E992E000
:101A50000E94E206A60160E677E0C7010E94FF232C
:101A6000892BE9F4C8010E94B6235C01019739F083
:101A70006CE871E0C8010E94632E892B21F481E09B
:101A80008093E10187C0AB2839F061E971E0C801BA
:101A90000E94632E892B19F41092E1017BC0A601EC
:101AA0006DE377E0C7010E94FF23892B61F4C80131
:101AB0000E94B22360930B0170930C0180930D017F
:101AC00090930E0167C0A60160E277E0C7010E9413
:101AD000FF23892B61F4C8010E94B2236093140193
:101AE00070931501809316019093170153C0A601BE
:101AF00062E077E0C7010E94FF23892B61F4C801EF
:101B00000E94B2236093100170931101809312011F
:101B1000909313013FC0A60165EE76E0C7010E94D5
:101B2000FF23892B61F4C8010E94B223609318013E
:101B30007093190180931A0190931B012BC0A60189
:101B400069EC76E0C7010E94FF23892B61F4C8018C
:101B50000E94B223609300017093010180930201FF
:101B60009093030117C0A6016FEA76E0C7010E94B7
:101B7000FF23892BD9F4C8010E94B6235C0181E0C0
:101B8000A816B10439F06CE871E0C8010E94632E18
:101B9000892B19F40E94460C38C0AB28D9F361E9AF
:101BA00071E0C8010E94632E892BA1F3A60160E9B0
:101BB00076E0C7010E94FF23892BF9F4C8010E9437
:101BC000B6235C0191E0A916B10439F06CE871E02C
:101BD000C8010E94632E892B21F481E080931C01AF
:101BE00014C0AB2839F061E971E0C8010E94632E8E
:101BF000892B19F410921C0108C0A60163E776E056
:101C0000C7010E94FF23892B29F20FB6F8949EBECC
:101C10000FBE8DBE0FB6F8949EBE0FBE8DBEDF9177
:101C2000CF911F910F91FF90EF90DF90CF90BF90D9
:101C3000AF909F908F900895FF920F931F93CF9333
:101C4000DF930E94C30A0E94090BC6E6D2E0F88027
:101C50000E94C30A0E94090B09810E94C30A0E94C4
:101C6000090B1A810E94C30A0E94090B1F92FF925E
:101C70001F920F931F921F938E8190E08E54984F66
:101C80009F938F9384EC97E09F938F9387E592E0E7
:101C90009F938F930E946A248DB79EB70C960FB6C0
:101CA000F8949EBF0FBE8DBF67E572E080E992E0B9
:101CB000DF91CF911F910F91FF900C94F406109239
:101CC000C0010E941C0E81E696E00C94F310CF92A6
:101CD000DF92EF92FF920F93CF93DF93CDB7DEB7F2
:101CE000A1970FB6F894DEBF0FBECDBF88EF92E08C
:101CF0009F938F93CE0101966C019F938F930E94C7
:101D00006A248AEB97E09F938F937E0198E1E90E16
:101D1000F11CFF92EF920E946A24F70101900020CB
:101D2000E9F73197AF014E195F0901E022E0B701F1
:101D3000C6010E9441120FB6F894DEBF0FBECDBFA0
:101D4000A1960FB6F894DEBF0FBECDBFDF91CF9145
:101D50000F91FF90EF90DF90CF900895CF92DF9298
:101D6000EF92FF920F931F93CF93DF93CDB7DEB720
:101D700063970FB6F894DEBF0FBECDBF81E08093AE
:101D8000C0010E941C0E81E596E00E94F310809134
:101D9000C0018823F1F18FE396E09F938F93CE01EA
:101DA00001967C019F938F930E946A241B8A02E014
:101DB00010E020E030E0A9016CE070E080918D023D
:101DC00090918E020E943908F70101900020E9F7F6
:101DD0003197AF014E195F09B70180918D02909143
:101DE0008E020E94D60741E050E0BE016D5E7F4F3B
:101DF00080918D0290918E020E94D60780918D0273
:101E000090918E020E94C0070FB6F894DEBF0FBEFD
:101E1000CDBF8091C00181110E94670E63960FB6FD
:101E2000F894DEBF0FBECDBFDF91CF911F910F9110
:101E3000FF90EF90DF90CF900895AF92BF92CF9236
:101E4000DF92EF92FF920F93CF93DF9300D0CDB745
:101E5000DEB7ADB6BEB68091C001882399F18091FE
:101E6000D0014AE09E012F5F3F4F6901B90190E028
:101E70000E940D248DB79EB74A970FB6F8949EBF67
:101E80000FBE8DBF2DB73EB72F5F3F4F790180EA60
:101E900097E09F938F93FF922F930E946A24F601FD
:101EA00001900020E9F73197AF014C195D0900E07E
:101EB00020E0B601C7010E9441120FB6F894BEBEE1
:101EC0000FBEADBE0FB6F894BEBE0FBEADBE0F9036
:101ED0000F90DF91CF910F91FF90EF90DF90CF9017
:101EE000BF90AF90089585E396E00E94D81060916E
:101EF000DD017091DE018091DF019091E00142E00F
:101F00000E94561180E992E00C94C1060E941C0EBA
:101F10008FE196E00E94F3100E9441136093E60166
:101F20007093E7018093E8019093E9010E944113C7
:101F30006093BB017093BC018093BD019093BE017F
:101F40000E9441136093D9017093DA018093DB0101
:101F50009093DC010E9441136093D5017093D601E8
:101F60008093D7019093D8010E9441136093D101CF
:101F70007093D2018093D3019093D4010E944113B6
:101F80000E9441130E9441136093CA017093CB01D8
:101F90008093CC019093CD010E9441136093C101C5
:101FA0007093C2018093C3019093C4010E944113B6
:101FB0000E9441131092E2011092E3011092E40199
:101FC0001092E5011092C5011092CE011092C60147
:101FD0001092C9011092C8011092C70160E08CE014
:101FE0000E94D6121092D0011092740281E0809368
:101FF000C50308954F925F926F927F928F929F9246
:10200000AF92BF92CF92DF92EF92FF92CF93DF9386
:102010000E941C132B013C01C12CD12C7601812C78
:10202000912C54010E941C13DC01CB0184199509E9
:10203000A609B70980329E44A105B105B8F4C09144
:102040000401D091050183E10E940513DE01A81B64
:10205000B90B9D010E94B72C860E971EA81EB91EB3
:102060008FEFC81AD80AE80AF80ADCCFC501B40114
:10207000A70196010E94952CCA01B9010E94D32A9A
:102080000E94F92D20E030EC4FE754E40E944D2DE2
:1020900020E030E040EA50E40E94342B24EA30E7AC
:1020A0004DE35EE30E944D2D6093DD017093DE01F0
:1020B0008093DF019093E001DF91CF91FF90EF904B
:1020C000DF90CF90BF90AF909F908F907F906F9058
:1020D0005F904F900895CF92DF92EF92FF928091A0
:1020E000D001882331F1C090DD01D090DE01E09075
:1020F000DF01F090E0012091000130910101409159
:10210000020150910301C701B6010E94CE2A87FD4A
:1021100012C0209118013091190140911A0150917B
:102120001B01C701B6010E94EE2D181634F081E0A4
:1021300005C080E003C082E001C083E0FF90EF9023
:10214000DF90CF900895EF92FF920F931F93CF935C
:10215000DF9300D0CDB7DEB78C017A8369830E940C
:10216000052C6981861739F0C8010E941D2CEE24C8
:10217000E394F12C02C0E12CF12C0F5F1F4FC8013A
:102180000E94052C6A81861731F0C8010E941D2C1F
:102190008FEFE81AF80A81E0EF2809F480E00F9049
:1021A0000F90DF91CF911F910F91FF90EF900895C5
:1021B0000F931F93CF93DF938C01C0E0D0E0F80121
:1021C000EC0FFD1F6491662341F080E992E00E94CC
:1021D000DC04892B11F02196F2CFCE01DF91CF9153
:1021E0001F910F910895CF93DF930E94D810EC01B7
:1021F00080E992E00E94C1068C0F9D1FDF91CF9174
:102200000895CF92DF92EF92FF92CF93DF936C010C
:10221000990FEE08FF08F7FE15C06DE280E992E025
:102220000E94DC04EC0144275527BA014C195D09D2
:102230006E097F092AE080E992E00E947806C80FC3
:10224000D91F08C02AE0B701A60180E992E00E94E8
:102250007806EC0180E992E00E94C1068C0F9D1F78
:10226000DF91CF91FF90EF90DF90CF90089590E0B5
:10227000FC01E05EF74F2491FC01E45FF74F84918D
:10228000882399F090E0880F991FFC01EE5FF74FCB
:10229000A591B491FC01E850F84F859194918FB7C6
:1022A000F894EC91E22BEC938FBF08958F929F925C
:1022B000AF92BF92CF92DF92EF92FF920F931F9354
:1022C000CF93DF936B017C01142F9B01AC010E9423
:1022D000392E882319F067E971E027C046015701BC
:1022E000E894B7F82FEF3FEF4FE75FE7C501B40180
:1022F0000E94392E81110DC02FEF3FEF4FE75FE7AE
:10230000C501B4010E94CE2A18161CF46BE971E0D5
:102310000CC02FEF3FEF4FE75FE4C701B6010E940B
:10232000EE2D181694F46FE971E080E992E0DF91E8
:10233000CF911F910F91FF90EF90DF90CF90BF90C2
:10234000AF909F908F900C9463062FEF3FEF4FE775
:102350005FECC701B6010E94CE2A87FDE4CF20E0E2
:1023600030E0A901C701B6010E94CE2A87FF0BC049
:102370006DE280E992E00E94DC04EC01F7FAF0944F
:10238000F7F8F09402C0C0E0D0E000E060E070E058
:1023900080E09FE3101741F020E030E040E251E49C
:1023A0000E944D2D0F5FF6CFA70196010E94E12CF0
:1023B0006B017C010E94BF2D4B015C012AE0AB0147
:1023C000BC0180E992E00E947806C80FD91F112352
:1023D000C9F1C501B4010E94D32A9B01AC01C70118
:1023E000B6010E94E02C6B017C016EE280E992E074
:1023F0000E94DC04C80FD91F20E030E040E251E425
:10240000C701B6010E94342B4B015C010E94BF2D15
:102410006B01E12CF12C2AE0B701A60180E992E0E2
:102420000E947806C80FD91FC701B6010E94D32A9F
:102430009B01AC01C501B4010E94E02C6B017C0141
:102440001150D1F6CE01DF91CF911F910F91FF90E6
:10245000EF90DF90CF90BF90AF909F908F900895B6
:10246000582FEBEEF7E08FEF9FEF9F012B5E374089
:102470004491451719F0411102C00895C9013196E0
:10248000F4CFAF92BF92CF92DF92EF92FF920F9371
:102490001F93CF93DF9300D000D0CDB7DEB76C0190
:1024A0005B015A8349832B830C8385E7E82E82E006
:1024B000F82E05E010E020E030E0A9016BE070E0CC
:1024C000F701808D918D0E943908F601019000205E
:1024D000E9F73197AF014C195D09B601F701808D1D
:1024E000918D0E94D60749815A81B501F701808DEF
:1024F000918D0E94D60742E050E0BE016F5F7F4F92
:10250000F701808D918D0E94D60741E050E0BE0119
:102510006D5F7F4FF701808D918D0E94D60741E05E
:1025200050E0BE016C5F7F4FF701808D918D0E945E
:10253000D607F701808D918D0E94C0070F900F90F4
:102540000F900F90DF91CF911F910F91FF90EF901F
:10255000DF90CF90BF90AF900895833081F028F442
:10256000813099F08230A1F008958730A9F0883049
:10257000B9F08430D1F4809180008F7D03C08091C8
:1025800080008F7780938000089584B58F7702C094
:1025900084B58F7D84BD08958091B0008F7703C08E
:1025A0008091B0008F7D8093B00008951F93CF93EA
:1025B000DF93282F30E0F901E952F84F8491F901B7
:1025C000E05EF74FD491F901E45FF74FC491CC235B
:1025D000C1F0162F81110E94AD12EC2FF0E0EE0F2A
:1025E000FF1FE850F84FA591B4919FB7F8941111CF
:1025F00004C08C91D095D82302C0EC91DE2BDC93E3
:102600009FBFDF91CF911F9108958E3008F08E50BB
:102610008770806480937C0080917A0080648093CE
:102620007A0080917A0086FDFCCF8091780020911D
:10263000790090E0922B08953FB7F8948091CB03F6
:102640009091CC03A091CD03B091CE0326B5A89B69
:1026500005C02F3F19F00196A11DB11D3FBFBA2F34
:10266000A92F982F8827820F911DA11DB11DBC0194
:10267000CD0142E0660F771F881F991F4A95D1F759
:1026800008952FB7F8946091C7037091C8038091A3
:10269000C9039091CA032FBF0895CF92DF92EF92A2
:1026A000FF92CF93DF93EC010E9441136B017C01F9
:1026B0000E944113DC01CB018C199D09AE09BF09B1
:1026C000803D9740A105B10530F4CE010E94B608C7
:1026D000009771F302C080E090E0DF91CF91FF900E
:1026E000EF90DF90CF9008951F920F920FB60F9248
:1026F00011242F933F938F939F93AF93BF93809118
:10270000C7039091C803A091C903B091CA03309147
:10271000C60323E0230F2D3720F40196A11DB11D20
:1027200005C026E8230F0296A11DB11D2093C60304
:102730008093C7039093C803A093C903B093CA03BF
:102740008091CB039091CC03A091CD03B091CE03A7
:102750000196A11DB11D8093CB039093CC03A09350
:10276000CD03B093CE03BF91AF919F918F913F91D5
:102770002F910F900FBE0F901F901895CF93DF935E
:10278000CDB7DEB7CC5BD1090FB6F894DEBF0FBE74
:10279000CDBF789484B5826084BD84B5816084BDEA
:1027A00085B5826085BD85B5816085BD80916E00EF
:1027B000816080936E001092810080918100826020
:1027C000809381008091810081608093810080915D
:1027D00080008160809380008091B100846080934C
:1027E000B1008091B00081608093B00080917A0048
:1027F000846080937A0080917A00826080937A006E
:1028000080917A00816080937A0080917A0080685C
:1028100080937A001092C100E091A002F091A10291
:1028200082E08083E091A002F091A1021082E09109
:102830009C02F0919D021082E0919E02F0919F0215
:1028400080E180831092A802E091A402F091A50299
:1028500086E08083E091A202F091A30280818061F2
:102860008083E091A202F091A3028081886080833E
:10287000E091A202F091A302808180688083E091C0
:10288000A202F091A30280818F7D80838BE00E9461
:10289000371161E08BE00E94D6128CE00E94371164
:1028A00060E08CE00E94D6128FE20E9430128C0110
:1028B00097FF04C08CE50E9430128C018EE20E94CA
:1028C00030127C0197FF04C080E00E9430127C012E
:1028D0008EE692E00E94D8100F5F1F4F0E151F0565
:1028E0005CF4F801E551F84F6491662329F080E922
:1028F00092E00E94DC04F0CF80E992E00E94C106E1
:102900008DE09CE090933203809331038DEA92E056
:102910000E94F3108FE293E06C01990FEE08FF081C
:102920008091370390913803DC01ED91FC91019087
:10293000F081E02D60EC099500E010E0A701960120
:1029400061E070E08DE293E00E9439088DE293E04F
:102950000E94C007A0903503B09036031092360352
:10296000109235038DE293E00E944D138C01009785
:1029700009F468C0FC0144815581668177818091AA
:102980003903C416D506E606F70609F040C08823C9
:1029900041F060E871E080912D0390912E030E9438
:1029A000E206B0923603A09235030E941C0E8DE71A
:1029B00092E00E94F31000E010E020E030E0A90176
:1029C00064E070E08DE293E00E9439088DE293E0CC
:1029D0000E94C00788EA93E00E94D8108DE293E03D
:1029E0000E944D138C01892BD1F162E471E080E9E2
:1029F00092E00E94F406F801448155816681778156
:102A00002AE030E080E992E00E94C50628C08823D1
:102A100009F4A8CF6CE371E080912D0390912E030F
:102A20000E94F406D80114964D915D916D917C91B0
:102A300017972AE030E080912D0390912E030E9499
:102A4000C50690CFB0923603A09235038FE892E08E
:102A50000E94D81080E090E00E94011161CF69E4EB
:102A600071E080E992E00E94E206ADB6BEB68EEA61
:102A70009EE090937802809377028FE59EE090939A
:102A80007E0280937D028CE09CE090938402809390
:102A9000830284ED9CE090938A028093890286EC05
:102AA00092E00E94D81085E792E06C01990FEE0841
:102AB000FF0820E130E0B701A60180E992E00E9422
:102AC000C50604E010E020E030E0A9016AE070E013
:102AD00080918D0290918E020E943908C982DA821B
:102AE000EB82FC8244E050E09E012F5F3F4F790172
:102AF000B90180918D0290918E020E94D6078BE7DA
:102B000092E0092E000CAA0BBB0B89839A83AB833E
:102B1000BC8344E050E0B70180918D0290918E0219
:102B20000E94D60781E892E0092E000CAA0BBB0B8D
:102B300089839A83AB83BC8344E050E0B7018091E2
:102B40008D0290918E020E94D60787E892E0092EAE
:102B5000000CAA0BBB0B89839A83AB83BC8344E034
:102B600050E0B70180918D0290918E020E94D607AD
:102B700080918D0290918E020E94C00788EF92E0B2
:102B80009F938F93FF92EF920E946A248BEE92E0C4
:102B90009F938F936E0131E8C30ED11CDF92CF92C9
:102BA0000E946A2481E0CC54DF4F8883C45BD0400C
:102BB00082E0CD54DF4F8883C35BD04020E030E01B
:102BC000A9016DE070E080918D0290918E020E94CB
:102BD0003908F70101900020E9F73197AF014E194C
:102BE0005F09B70180918D0290918E020E94D607F5
:102BF000F60101900020E9F73197AF014C195D090A
:102C0000B60180918D0290918E020E94D60741E01C
:102C100050E0BE016D547F4F80918D0290918E02E5
:102C20000E94D60741E050E0BE016C547F4F809176
:102C30008D0290918E020E94D60780918D02909114
:102C40008E020E94C0070E941C0E8DED92E00E9431
:102C5000F3100FB6F894BEBE0FBEADBE2091EC01CE
:102C60003091ED018091EA019091EB01281739072D
:102C700021F41092EB011092EA018091EA01909107
:102C8000EB019093B1018093B0019C012C5F3F4F09
:102C90003093AF012093AE012C5F3F4F3093AD01D5
:102CA0002093AC012C5F3F4F3093AB012093AA01DE
:102CB0002E5F3F4F3093A9012093A8012C5F3F4F17
:102CC0003093A7012093A6012A5F3F4F3093ED0177
:102CD0002093EC0146969093A5018093A40184E88B
:102CE00093E00E94F310B7018091B0019091B1017F
:102CF0000E947F0789809A80AB80BC80B701809159
:102D0000AE019091AF010E947F0789819A81AB81CA
:102D1000BC81CB54DF4F88839983AA83BB83C55B77
:102D2000D040B7018091AC019091AD010E947F0726
:102D300049805A806B807C808091AA019091AB0180
:102D40000E940D2C11E0892B09F410E0B70180914D
:102D5000A8019091A9010E947F0789819A81AB8186
:102D6000BC81C754DF4F88839983AA83BB83C95B27
:102D7000D040B7018091A6019091A7010E947F07E2
:102D8000C980DA80EB80FC808091A4019091A5013C
:102D90000E940D2C01E0892B09F400E020E030E0D6
:102DA000A901C501B4010E94CE2A87FD4CC1A5012D
:102DB0009401C501B4010E94392E811144C1E894E7
:102DC000B7F82FEF3FEF4FE75FE7C501B4010E946F
:102DD000392E81110BC02FEF3FEF4FE75FE7C501A1
:102DE000B4010E94CE2A18160CF42DC120E030E068
:102DF000A901CB54DF4F688179818A819B81C55BB2
:102E0000D0400E94CE2A18160CF01DC1CB54DF4FC3
:102E1000288139814A815B81C55BD040CA01B901F3
:102E20000E94392E81110FC1CB54DF4F88809980C9
:102E3000AA80BB80C55BD040E894B7F82FEF3FEF86
:102E40004FE75FE7C501B4010E94392E81110BC025
:102E50002FEF3FEF4FE75FE7C501B4010E94CE2A95
:102E600018160CF4F0C020E030E0A901C301B20153
:102E70000E94CE2A18160CF0E6C0A3019201C301ED
:102E8000B2010E94392E8111DEC053014201E89443
:102E9000B7F82FEF3FEF4FE75FE7C501B4010E949E
:102EA000392E81110BC02FEF3FEF4FE75FE7C501D0
:102EB000B4010E94CE2A18160CF4C5C020E030E000
:102EC00040EA50E4C301B2010E94EE2D18160CF442
:102ED000BAC0CB54DF4F288139814A815B81C55B01
:102EE000D040C301B2010E94CE2A18160CF0ABC02C
:102EF000612F70E080E090E00E94D32A4B015C01DA
:102F00009B01AC010E94392E81119DC02FEF3FEF34
:102F10004FE75FE7C501B4010E94392E81110BC054
:102F20002FEF3FEF4FE75FE7C501B4010E94CE2AC4
:102F300018160CF488C020E030E0A901C754DF4F18
:102F4000688179818A819B81C95BD0400E94CE2AA9
:102F500087FD79C0C754DF4F288139814A815B8161
:102F6000C95BD040CA01B9010E94392E81116BC0E2
:102F7000C754DF4F88809980AA80BB80C95BD0404E
:102F8000E894B7F82FEF3FEF4FE75FE7C501B401D3
:102F90000E94392E81110BC02FEF3FEF4FE75FE703
:102FA000C501B4010E94CE2A18160CF44CC020E0D2
:102FB00030E0A901C701B6010E94CE2A87FD43C0B7
:102FC000A7019601C701B6010E94392E81113BC0AD
:102FD000E894F7F82FEF3FEF4FE75FE7C701B6013F
:102FE0000E94392E81110AC02FEF3FEF4FE75FE7B4
:102FF000C701B6010E94CE2A18162CF1602F70E08E
:1030000080E090E00E94D32A6B017C019B01AC011F
:103010000E94392E811117C02FEF3FEF4FE75FE776
:10302000C701B6010E94392E81110C9490222FEF16
:103030003FEF4FE75FE7C701B6010E94CE2A18169F
:1030400014F00C94902280E693E00E94F3106091BB
:10305000B0017091B1018AE097EDA3EABCE3C156DB
:10306000DF4F88839983AA83BB83CF59D04044E044
:1030700050E0CE0181569F4F0E94132C6091AE010B
:103080007091AF018DEC9CECACE8BFE3CD55DF4F08
:1030900088839983AA83BB83C35AD04044E050E01D
:1030A000CE018D559F4F0E94132C6091AC01709101
:1030B000AD018DEC9CECACECBFE3C955DF4F8883D0
:1030C0009983AA83BB83C75AD04044E050E0CE0125
:1030D00089559F4F0E94132C60E070E08091AA01F7
:1030E0009091AB010E942B2C6091A8017091A901D5
:1030F0008AE999E9A9E9BEE3C555DF4F8883998339
:10310000AA83BB83CB5AD04044E050E0CE01855522
:103110009F4F0E94132C6091A6017091A70180E03F
:1031200090E0A0E4B0E4C155DF4F88839983AA837F
:10313000BB83CF5AD04044E050E0CE0181559F4F31
:103140000E94132C61E070E08091A4019091A50190
:103150000E942B2C80E992E00E94C10667E2C62EF5
:1031600063E0D62E712CDE01AF57BF4F1D017FE00B
:10317000A72E73E0B72EE0E46E2E8DB69EB6F60154
:1031800005911491C8010E94E62399270196EDB795
:10319000FEB7E81BF90B0FB6F894FEBF0FBEEDBFEC
:1031A0002DB73EB72F5F3F4F7901B801C9010E948B
:1031B000DF23711012C060910B0170910C0180919E
:1031C0000D0190910E01810122E040E00E949223C6
:1031D0008091B0019091B10114C031E0731213C01D
:1031E0006091140170911501809116019091170161
:1031F000810122E040E00E9492238091AE019091F3
:10320000AF0124E064C082E0781212C06091100126
:10321000709111018091120190911301810122E0BE
:1032200040E00E9492238091AC019091AD01E9CFE2
:1032300093E0791211C06091E10170E080E090E0CC
:103240000E94D32A810120E040E00E9492238091D5
:10325000AA019091AB013AC0A4E07A1212C0609129
:10326000000170910101809102019091030181019F
:1032700022E040E00E9492238091A8019091A90150
:10328000C0CFB5E07B1212C0609118017091190196
:1032900080911A0190911B01810122E040E00E947F
:1032A00092238091A6019091A701ABCF6091CF01AD
:1032B00070E080E090E00E94D32A810120E040E0AD
:1032C0000E9492238091A4019091A50122E01F9277
:1032D0002F939F938F933F922F92FF92EF92BF92E3
:1032E000AF921F926F92E1E0F0E0EC0FFD1FFF93B1
:1032F000EF930E943A24BE016F5F7F4F80E992E016
:103300000E94F4060FB6F8949EBE0FBE8DBE739455
:10331000F2E0CF0ED11C27E072122FCF80E992E0AD
:103320000E94C1068CE09EECA7ECBBE380931602E2
:1033300090931702A0931802B09319028FE00E9495
:10334000051386569109BC01990F880B990B0E94B1
:10335000D52A2CE03EEC47EC5BE30E94342B6093D3
:1033600043027093440280934502909346020CE31B
:1033700012E022E040E00E9492238091E101882344
:10338000D9F10E9441132B013C01C12CD12C7601B3
:10339000812C912C54010E944113DC01CB01841932
:1033A0009509A609B709893E9340A105B10588F49E
:1033B00083E10E940513092E000CAA0BBB0B880E9B
:1033C000991EAA1EBB1E8FEFC81AD80AE80AF80A6F
:1033D000E2CFC501B401A70196010E94952C30935C
:1033E000050120930401C9010E9401110E94FA0FF6
:1033F0000E946B108093C50388E993E00E94F3104C
:103400005CE2C52E58E0D52EDE01AF57BF4F7D01DF
:103410008DE293E00E94B6082091BF01422F50E058
:1034200080910A01082E000C990B48175907B9F032
:1034300020930A010E941C0EE091BF01F0E0EE0F04
:10344000FF1FE654FC4F659174918EEE91E00E944F
:10345000DF236EEE71E080E992E00E94E2060E94B6
:103460004113009112021091130220911402309125
:1034700015024B015C01801A910AA20AB30A20913D
:103480000601309107014091080150910901A8EE11
:10349000B3E00E94302C86169706A806B90608F4F9
:1034A0006FC00E94411360931202709313028093C5
:1034B0001402909315028AEF93E00E94D810809135
:1034C000BF01853099F082EE93E00E94D8104091C0
:1034D000BF0150E060E070E02AE080E992E00E94E5
:1034E000780680E992E00E94C1064AC000E010E040
:1034F00020E030E0A90167E070E08091C303909183
:10350000C4030E9439088091C3039091C4030E94B0
:10351000C0078091C3039091C4030E944D1300978C
:10352000F9F0FC0184809580A680B7808114910415
:10353000A104B104A9F083ED93E00E94D8102AE021
:1035400030E0B501A40180E992E00E94C506C50102
:10355000B4010E949C0A88E097E0A0E0B0E008C0B7
:1035600086EC93E00E94F3108FE090E0A0E0B0E0E2
:103570008093060190930701A0930801B09309017D
:10358000109234020E94C30A00910E0210910F02A1
:103590002091100230911102601771078207930782
:1035A00069F00E94C30A60930E0270930F02809329
:1035B00010029093110281E08093340280911C01EB
:1035C00090918F02891789F080938F020E941C0EC0
:1035D00080911C01882319F086E096E002C080EFFC
:1035E00095E00E94F3100E94860F0E9441134090C4
:1035F000E6015090E7016090E8017090E901DC017C
:10360000CB0184199509A609B7098090E201909031
:10361000E301A090E401B090E50184369105A10595
:10362000B10530F081149104A104B10409F044C043
:1036300081149104A104B10441F410924702109244
:1036400048021092490210924A028FE00E9405132C
:1036500086569109BC01990F880B990B0E94D52AB7
:1036600020911602309117024091180250911902D0
:103670000E94342B9B01AC0160914702709148027B
:103680008091490290914A020E94E12C6093470286
:10369000709348028093490290934A029FEF891ADF
:1036A000990AA90AB90A8092E2019092E301A092D4
:1036B000E401B092E50148C00E944113DC01CB0156
:1036C00084199509A609B70984369105A105B105A4
:1036D000D8F10E9441136093E6017093E701809353
:1036E000E8019093E901C501B4010E94D32A9B012E
:1036F000AC0160914702709148028091490290911B
:103700004A020E944D2D60934302709344028093BD
:103710004502909346020CE312E022E040E00E9452
:103720009223C8010E94B223609343027093440223
:1037300080934502909346021092E2011092E301B9
:103740001092E4011092E5014090E2015090E301F3
:103750006090E4017090E50141145104610471042A
:10376000D9F58090430290904402A0904502B09019
:10377000460220910B0130910C0140910D015091B6
:103780000E01C501B4010E94CE2A181604F520913D
:103790001401309115014091160150911701C50196
:1037A000B4010E94CE2A1816A4F420911001309181
:1037B00011014091120150911301C501B4010E9401
:1037C000EE2D8095881F8827881F880F03C083E00F
:1037D00001C081E0809374028091E1018823C1F0EF
:1037E000452846284728A1F40E94FA0F6093DD017E
:1037F0007093DE018093DF019093E00105E312E016
:1038000022E040E00E9492230E946B108093C50347
:1038100080911C01882309F474C0809174029091F6
:103820007302891741F180937302823079F08330FB
:10383000C1F0813001F50E9441136093D90170936A
:10384000DA018093DB019093DC0115C00E944113E3
:103850006093D5017093D6018093D7019093D801DE
:103860000AC00E9441136093D1017093D2018093EA
:10387000D3019093D401809174028230D9F08330C7
:10388000A9F18130F1F50E9441130091D901109105
:10389000DA012091DB013091DC01601771078207AA
:1038A000930779F18091D00181112BC081E0809341
:1038B000D00127C00E9441130091D5011091D6017B
:1038C0002091D7013091D801DC01CB01801B910BF5
:1038D000A20BB30B8D329140A105B10590F0809100
:1038E000D001882371F01092D0010BC00E944113C7
:1038F0000091D1011091D2012091D3013091D401D6
:10390000CCCF809174028330E9F40E94411300917E
:10391000D1011091D2012091D3013091D401DC0169
:10392000CB01801B910BA20BB30B883B9B40A105E5
:10393000B10550F08091CF01882331F081E0809370
:10394000CE0102C01092CE010E9441138090CA01A4
:103950009090CB01A090CC01B090CD01DC01CB01C7
:1039600088199909AA09BB0980389F44A241B10569
:1039700020F081E08093C90106C08091D0018111BF
:1039800002C01092C9018091E101882309F464C04A
:103990008091D001882321F12091180130911901E3
:1039A00040911A0150911B016091DD017091DE017F
:1039B0008091DF019091E0010E94EE2D18160CF02D
:1039C0004BC00E944113DC01CB0188199909AA0957
:1039D000BB098B3F9105A105B10508F03DC33CC073
:1039E000E2EEF7E08491EBE2F8E00491E7E1F8E041
:1039F0001491112309F434C381110E94AD12E12FF7
:103A0000F0E0EE0FFF1FE25FFB4FA591B4918C91A8
:103A1000082309F425C32DEC3CEC4CEC5EE36091EB
:103A2000DD017091DE018091DF019091E0010E9443
:103A3000EE2D87FD15C30E944113DC01CB018819CF
:103A40009909AA09BB0981319742A105B10508F47A
:103A500007C381E08093C7018091CE0190911E023F
:103A6000891799F180931E028823A1F00E941C0EF1
:103A700088EE94E00E94D81060910B0170910C01C7
:103A800080910D0190910E0142E00E94561180EE4E
:103A900094E004C00E941C0E8FEC94E00E94F3108E
:103AA0000E941C0E88E194E00E94D81060914302AD
:103AB00070914402809145029091460242E00E943A
:103AC000561180E992E00E94C1068091C601909152
:103AD0001D02891779F080931D02882329F00E9426
:103AE0001C0E84EB94E004C00E941C0E83EA94E058
:103AF0000E94F3108091C90190911C02891779F0FE
:103B000080931C02882329F00E941C0E84E894E014
:103B100004C00E941C0E83E794E00E94F310809181
:103B2000C80190911B02891799F080931B0288238A
:103B300029F00E941C0E8EE594E004C00E941C0E29
:103B40008DE494E00E94F3100E941C0E0E94730FFB
:103B50008091C70190911A02891799F080931A02F7
:103B6000882329F00E941C0E84E394E004C00E9484
:103B70001C0E83E294E00E94F3100E941C0E0E942F
:103B8000730F8091CE01811111C08091C601811106
:103B90000DC08091C901811109C08091C8018111B6
:103BA00005C08091C701882309F4E4C080913402E4
:103BB000882309F4DBC080910F018C3021F08F3F06
:103BC00009F0D4C004C0E5E0F5E014916FC08CE0CA
:103BD00080930F01E5E0F5E014911F3F09F4C6C0A2
:103BE000113009F442C040F1123009F05FC0109268
:103BF000B0001092B1008091B00082608093B0005C
:103C00008091B10081608093B100E8E1F8E0849197
:103C1000E82FF0E0EE0FFF1FE850F84F85919491E8
:103C20009093B4018093B301F60184918093B20123
:103C30008CE00E9437115CC014BC15BC84B5826056
:103C400084BD85B5816085BDE8E1F8E08491E82F09
:103C5000F0E0EE0FFF1FE850F84F85919491F601C8
:103C600084918093200210E023C010928000109273
:103C70008100809181008860809381008091810023
:103C8000816080938100E8E1F8E08491E82FF0E022
:103C9000EE0FFF1FE850F84F85919491F601849143
:103CA00080931F028CE00E9437112CC017FD5EC06C
:103CB0008CE00E943711112319F0123009F518C059
:103CC00085B5887F836085BD80E387BD88EF97E0F9
:103CD000A0E0B0E08093250290932602A0932702F3
:103CE000B093280280916E00826080936E003EC087
:103CF0008091B100887F83608093B10081E623C00A
:103D00001130F1F480918100887F8160809381007F
:103D1000A0E4BCE0B0938900A093880088EF97E00E
:103D2000A0E0B0E08093210290932202A0932302AE
:103D3000B093240280916F00826080936F0016C060
:103D40001230A1F480E48093B30088EF97E0A0E004
:103D5000B0E08093B5019093B601A093B701B09302
:103D6000B801809170008260809370008091CE01D4
:103D7000811107C08091C801811103C08091C701E2
:103D800081111092D0018091C50190913302891761
:103D900011F180933302882309F464C00E94411317
:103DA0006093C1017093C2018093C3019093C401D9
:103DB0000E941C0E86EC95E00E94D8102AE04AE092
:103DC00050E060E070E080E992E00E9478068DEBC0
:103DD00095E00E94F3108091C501882309F442C048
:103DE0000E9441130E9441130091C1011091C20130
:103DF0002091C3013091C401DC01CB01801B910BE8
:103E0000A20BB30B81319742A105B10510F00E94BE
:103E1000860F8091CE01882329F120E030E0A901AE
:103E20006091430270914402809145029091460254
:103E30000E94EE2D1816B4F40E9441130091C101A6
:103E40001091C2012091C3013091C401DC01CB016A
:103E5000801B910BA20BB30B89389341A105B105CF
:103E600008F011C11091D00111110AC00E94411334
:103E70006093CA017093CB018093CC019093CD01E4
:103E800080913202181709F452C061E061278BE07B
:103E90000E94D612109332028091C00181110E94BB
:103EA0001D0F0E941C0E8091D001882329F00E94D2
:103EB000FA0F85EB95E004C00E94FA0F8CEA95E0BA
:103EC0009F938F931F928BE08F933F922F920E942C
:103ED0003A240F900F900F900F900F900F9085E362
:103EE00092E09F938F938CE392E09F938F933F9206
:103EF0002F9281E995E09F938F931F9288E28F9391
:103F000021E030E02C0F3D1F3F932F930E943A2475
:103F1000BE016F5F7F4F80E992E00E94E2068DB79D
:103F20009EB70C960FB6F8949EBF0FBE8DBF8091C2
:103F3000BF01853029F08091C001882309F489C030
:103F40000E9441130091BB011091BC012091BD0161
:103F50003091BE01DC01CB01801B910BA20BB30B96
:103F6000883E9340A105B10508F44CC00E9441135E
:103F70006093BB017093BC018093BD019093BE011F
:103F80008090430290904402A0904502B090460277
:103F900040902E0250902F026090300270903102BB
:103FA000A3019201C501B4010E94CE2A882309F41D
:103FB0009FC0A3019201C501B4010E94CE2A87FFD0
:103FC00078C080912D02811161C080922E02909262
:103FD0002F02A0923002B092310211E08091C5010F
:103FE000811111E00E94C30A8091B9019091BA0138
:103FF000029709F011E080911C01882309F47AC02E
:10400000111178C08091C001882319F10E944113D9
:104010000091290210912A0220912B0230912C024A
:10402000DC01CB01801B910BA20BB30B81389E43AB
:10403000A105B10570F00E944113609329027093AD
:104040002A0280932B0290932C020E94670E0E94FA
:104050001D0F0E944B05DCC981E08093C801FCCC98
:104060002DEC3CEC4CEC5EE36091DD017091DE01E7
:104070008091DF019091E0010E94CE2A87FFECCC75
:104080001092C701E9CC0E94860FECCE2AE037EDF2
:1040900043EA5CE3C301B2010E94E02C9B01AC0146
:1040A000C501B4010E94EE2D87FD22C010922D02A1
:1040B0001FC0A3019201C501B4010E94EE2D181684
:1040C000BCF480912D02811180CF2AE037ED43EAC4
:1040D0005CE3C301B2010E94E12C9B01AC01C5016C
:1040E000B4010E94EE2D87FD03C081E080932D0274
:1040F00010E074CF60911401709115018091160148
:10410000909117018E0107561F4F22E040E00E9458
:104110009223B801CE0101960E946C2E6DE875E0E5
:10412000CE0101960E94D423609143027091440213
:10413000809145029091460222E040E00E94922345
:10414000B801CE0101960E94582E6DE875E0CE01AF
:1041500001960E94D4236091100170911101809109
:1041600012019091130122E040E00E949223B801D5
:10417000CE0101960E94582E6AE875E0CE010196A4
:104180000E94D4238091C501882309F474C08091D2
:10419000CE01882389F082E895E09F938F931F9248
:1041A00088E18F93FF92EF920E943A240F900F9034
:1041B0000F900F900F900F908091C601882389F087
:1041C0008AE795E09F938F931F9288E18F93FF92E8
:1041D000EF920E943A240F900F900F900F900F9043
:1041E0000F908091C901882389F082E795E09F9321
:1041F0008F931F9288E18F93FF92EF920E943A244F
:104200000F900F900F900F900F900F908091C8011A
:10421000882389F08AE695E09F938F931F9288E127
:104220008F93FF92EF920E943A240F900F900F907D
:104230000F900F900F908091C701882389F082E63C
:1042400095E09F938F931F9288E18F93FF92EF9257
:104250000E943A240F900F900F900F900F900F90A4
:10426000B701CE0101960E94582E6AE875E0CE0192
:1042700001960E94D4230E94C30A8091B9019091B3
:10428000BA01029779F10E94C30A8091B901909115
:10429000BA01892B19F485E595E00AC00E94C30A8A
:1042A0008091B9019091BA01019789F486E495E073
:1042B0009F938F931F9288E18F93FF92EF920E94BA
:1042C0003A240F900F900F900F900F900F90B7011E
:1042D000CE0101960E94582E6AE875E0CE01019643
:1042E0000E94D42380911C01811120C08FE395E0AE
:1042F0009F938F931F9288E18F93FF92EF920E947A
:104300003A2440E850E0B701CE0101960E94732E96
:1043100040E850E06AE875E0CE0101960E94EF2384
:104320000F900F900F900F900F900F908091C00101
:10433000811120C082E395E09F938F931F9288E1C3
:104340008F93FF92EF920E943A2440E850E0B70129
:10435000CE0101960E94732E40E850E06AE875E0B5
:10436000CE0101960E94EF230F900F900F900F90B7
:104370000F900F9080917402813059F038F08230A4
:1043800059F0833061F485E195E00BC08BE295E054
:1043900008C085E295E005C08FE195E002C081E1AB
:1043A00095E09F938F931F9288E18F93FF92EF92F6
:1043B0000E943A240F900F900F900F900F900F9043
:1043C00040E850E0B701CE0101960E94732E809123
:1043D000E101882309F443C040E850E06AE875E051
:1043E000CE0101960E94EF238091D001882389F0AD
:1043F0008091C503823039F0833041F08130D1F4AF
:104400008BE295E008C08BE095E005C086E095E082
:1044100002C08CEA95E09F938F931F9288E18F935F
:10442000FF92EF920E943A240F900F900F900F90FE
:104430000F900F9040E850E065E372E0CE010196E6
:104440000E94732E64E471E0CE0101960E94582E02
:1044500040E850E0B701CE0101960E94732E40E87B
:1044600050E06AE875E0CE0101960E94EF238EE0ED
:104470000E940513BC01990F880B990B0E94D52A45
:104480008E0107561F4F20E040E00E94922340E833
:1044900050E0B801CE0101960E94732E40E850E032
:1044A0006AE875E0CE0101960E94EF238FE00E943A
:1044B0000513BC01990F880B990B0E94D52A20E0A7
:1044C00040E00E94922340E850E0B801CE010196FE
:1044D0000E94732E40E850E06AE875E0CE01019634
:1044E0000E94EF2383E10E940513BC01990F880B02
:1044F000990B0E94D52A20E040E00E94922340E8D8
:1045000050E0B801CE0101960E94732E0E941C0E4D
:10451000BE016F5F7F4F80E992E00E94E20672CD9C
:1045200085E393E00E94F310BE016F5F7F4F80919F
:10453000B0019091B1010E947F0789819A81AB817E
:10454000BC8180930B0190930C01A0930D01B0935B
:104550000E01BE016F5F7F4F8091AE019091AF0160
:104560000E947F0789819A81AB81BC81809314016D
:1045700090931501A0931601B0931701BE016F5FD0
:104580007F4F8091AC019091AD010E947F0789819E
:104590009A81AB81BC818093100190931101A0930B
:1045A0001201B09313018091AA019091AB010E9476
:1045B0000D2C21E0892B09F420E02093E101BE01BC
:1045C0006F5F7F4F8091A8019091A9010E947F07A2
:1045D00089819A81AB81BC81809300019093010114
:1045E000A0930201B0930301BE016F5F7F4F8091E2
:1045F000A6019091A7010E947F0789819A81AB81D2
:10460000BC818093180190931901A0931A01B09373
:104610001B018091A4019091A5010E940D2C21E025
:10462000892B09F420E02093CF010C94AA18CF9392
:10463000DF93E0E9F2E01382128288EE93E0A0E0DB
:10464000B0E084839583A683B7838EE291E0918363
:10465000808385EC90E09587848784EC90E0978751
:10466000868780EC90E0918B808B81EC90E0938B3F
:10467000828B82EC90E0958B848B86EC90E0978B1C
:10468000868B118E128E138E148E84E690E090939A
:104690007202809371028091740280937302C5E765
:1046A000D2E0198218821B821A821F821E8219860A
:1046B00018861D861C861F861E861B8A1A8A1D8ADE
:1046C0001C8AADE2B3E0B98FA88F80911C01809362
:1046D0008F0213961C921E92129715961C921E9290
:1046E00014971B96FC93EE931A971C961C921C979A
:1046F00083E493E050969C938E931F9780E890E01C
:1047000052969C938E93519754961C921E92539757
:1047100055961C925597B093C403A093C303DF91A1
:10472000CF910895EF920F931F93CF93DF93E801FA
:1047300047FD02C034E001C034E1042E000C550BEB
:1047400057FF03C0519541955109E32E022F242FA5
:10475000AE010E946D26CE01DF91CF911F910F9186
:10476000EF900895662777270C94C727FC018827C8
:104770009927E89421912032E9F3293010F02E3066
:10478000C8F32B3241F02D3239F4689404C00E94F2
:104790001824820F911D219120532A30C0F31EF45A
:1047A000909581959F4F0895FB01DC010D900020AD
:1047B000E9F7119705900D920020E1F70895FB01AC
:1047C000DC0105900D920020E1F70895FC010590B1
:1047D0000020E9F7809590958E0F9F1F0895FB01AB
:1047E000DC010D900020E9F711974150504028F06E
:1047F000059000200D92C9F708951C920895FB01C1
:10480000DC014150504030F08D910590801919F431
:104810000020B9F7881B990B0895BB274A3031F463
:10482000992322F4BDE2909581959F4F0C94212409
:104830007AE0979F902D879F802D910D11240895E8
:10484000BB27FB015527AA27880F991FAA1FA4176A
:1048500010F0A41B83955051B9F7A05DAA3308F05E
:10486000A95DA193009779F7B111B1931192CB0192
:104870000C94242AAEE0B0E0E0E4F4E20C94492C7D
:104880000D891E898F89988D2EE02C831A830983C8
:1048900097FF02C080E090E801979E838D83AE0170
:1048A000455E5F4F698D7A8DCE0101960E948C2402
:1048B0004D815E8157FD0AC02F813885421753070D
:1048C0000CF49A01F801E20FF31F10822E96E4E037
:1048D0000C94652CAEE0B0E0E0E7F4E20C94492CD7
:1048E0000D891E898EE08C831A8309838FEF9FE7E1
:1048F0009E838D83AE01475E5F4F6F89788DCE01B9
:1049000001960E948C24EF81F885E00FF11F108240
:104910002E96E4E00C94652CABE0B0E0E2E9F4E222
:104920000C943B2C6C017B018A01FC0117821682DE
:10493000838181FFCCC1CE0101963C01F6019381B8
:10494000F70193FD859193FF81917F01882309F4FD
:10495000BAC1853239F493FD859193FF81917F012E
:10496000853229F4B60190E00E94342AE7CF912CD9
:10497000212C312CFFE1F315D8F08B3279F038F48B
:10498000803279F08332A1F4232D20611DC08D3255
:1049900061F0803369F4232D216016C0832D82607D
:1049A000382EE32DE4603E2E2AC0F32DF8601DC0A2
:1049B00037FC2DC020ED280F2A3040F08E32B9F49C
:1049C00036FC81C1232D2064322E19C036FE06C06C
:1049D0008AE0989E200D1124922E11C0EAE02E9EAE
:1049E000200D1124222EF32DF0623F2E08C08C36AC
:1049F00021F4832D8068382E02C0883641F4F701F7
:104A000093FD859193FF81917F018111B3CF982F01
:104A10009F7D9554933028F40C5F1F4F9FE399833B
:104A20000DC0833631F0833771F0833509F059C0FA
:104A300021C0F801808189830E5F1F4F88248394F1
:104A4000912C530113C02801F2E04F0E511CF801C4
:104A5000A080B18036FE03C0692D70E002C06FEF08
:104A60007FEFC5010E94192A4C018201F32DFF77C7
:104A70003F2E16C0280122E0420E511CF801A080F2
:104A8000B18036FE03C0692D70E002C06FEF7FEF8A
:104A9000C5010E940E2A4C01F32DF0683F2E8201C1
:104AA00033FC1BC0822D90E088169906B0F4B60145
:104AB00080E290E00E94342A2A94F4CFF50137FC7A
:104AC000859137FE81915F01B60190E00E94342A02
:104AD00021102A9421E0821A91088114910471F71F
:104AE000E8C0843611F0893641F5F80137FE07C079
:104AF00060817181828193810C5F1F4F08C060814A
:104B00007181072E000C880B990B0E5F1F4FF32D40
:104B1000FF763F2E97FF09C090958095709561951F
:104B20007F4F8F4F9F4FF0683F2E2AE030E0A30168
:104B30000E94702A882E861845C0853731F4232DAF
:104B40002F7EB22E2AE030E025C0932D997FB92E1A
:104B50008F36C1F018F4883579F0B5C0803719F078
:104B6000883721F0B0C0E92FE061BE2EB4FE0DC041
:104B7000FB2DF460BF2E09C034FE0AC0292F266029
:104B8000B22E06C028E030E005C020E130E002C0CF
:104B900020E132E0F801B7FE07C0608171818281B7
:104BA00093810C5F1F4F06C06081718180E090E0AF
:104BB0000E5F1F4FA3010E94702A882E8618FB2DBE
:104BC000FF773F2E36FE0DC0232D2E7FA22E891497
:104BD00058F434FE0BC032FC09C0832D8E7EA82E03
:104BE00005C0B82CA32C03C0B82C01C0B92CA4FE5E
:104BF0000FC0FE01E80DF11D8081803321F49A2D54
:104C0000997EA92E09C0A2FE06C0B394B39404C035
:104C10008A2D867809F0B394A3FC11C0A0FE06C0CB
:104C2000B21488F4280C922C9B180EC0B21460F4B5
:104C3000B60180E290E00E94342AB394F7CFB21418
:104C400018F42B1802C0982C212CA4FE10C0B60119
:104C500080E390E00E94342AA2FE17C0A1FC03C0AA
:104C600088E790E002C088E590E0B6010CC08A2D8C
:104C7000867859F0A1FE02C08BE201C080E2A7FC59
:104C80008DE2B60190E00E94342A891438F4B6010E
:104C900080E390E00E94342A9A94F7CF8A94F3013B
:104CA000E80DF11D8081B60190E00E94342A811048
:104CB000F5CF222009F442CEB60180E290E00E94B6
:104CC000342A2A94F6CFF6018681978102C08FEFAD
:104CD0009FEF2B96E2E10C94572CA9E0B0E0E3E7BC
:104CE000F6E20C94412C6A01122FB02E2BE3201710
:104CF00020F0FF24F394F00E02C02CE3F22E0F2DCF
:104D000027E0AE014F5F5F4F0E941529BC0149812A
:104D1000842F8970813031F0E1FC06C0E0FE06C0CE
:104D200090E205C09DE203C09BE201C090E05E2DD1
:104D3000507143FF3CC0911102C083E001C084E088
:104D4000811718F4212F281B01C020E051110BC03E
:104D5000F601822F30E2882319F031938150FBCF86
:104D6000C20ED11C20E0992329F0D6019C93F601B4
:104D700031966F01C6010396E2FE0AC03EE4D601F9
:104D80003C9341E411964C93119712963C9306C0C4
:104D90003EE6F601308341E641833283FC01322F47
:104DA00040E2332309F442C041933150FACF42FF2D
:104DB00044C0911102C083E001C084E0811718F45F
:104DC000212F281B01C020E051110BC0F601822FBA
:104DD00030E2882319F031938150FBCFC20ED11CF1
:104DE00020E0992329F0D6019C93F60131966F01BA
:104DF000C6010396E2FE0BC039E4D6013C933EE4C3
:104E000011963C93119736E412963C9307C039E60D
:104E1000F60130833EE6318336E63283FC01322FE1
:104E200040E2332319F041933150FBCFFC01E20FF4
:104E3000F11D10828EEF9FEFA6C021E030E09111AE
:104E400002C020E030E0161617061CF4FB01319674
:104E500002C0E1E0F0E02E0F3F1FBB2021F0EB2D60
:104E6000F0E0319602C0E0E0F0E02E0F3F1FE12FAE
:104E7000F0E02E173F071CF4121B212F01C020E089
:104E80008E2D887159F4F601822F30E2882319F0B3
:104E900031938150FBCFC20ED11C20E0992329F021
:104EA000D6019C93F60131966F0151110BC0F601AA
:104EB000822F90E3882319F091938150FBCFC20E8B
:104EC000D11C20E00F2D060F9A81342F307144FF42
:104ED00003C0913309F40150101624F4093018F07E
:104EE00008E001C001E0AB0177FF02C040E050E004
:104EF000FB01E41BF50BA1E0B0E0AC0FBD1FEA0F16
:104F0000FB1F8EE2A82E4B01801A91080B2D10E09A
:104F10001195019511094F3FBFEF5B0721F4D601B1
:104F2000AC9211966D01641775072CF084169506E6
:104F300014F4818101C080E3415051093196D601BA
:104F400011967D014017510724F0D6018C9367011B
:104F5000E2CF6417750739F4963320F4953319F4CA
:104F6000311101C081E3F6018083F701822F90E2C5
:104F7000882319F091938150FBCFF701E20FF11DC7
:104F8000108280E090E02996ECE00C945D2CA0E08B
:104F9000B0E0EDECF7E20C94412CEC016B016115F3
:104FA000710519F0FB01918380837E01FFEFEF1AF9
:104FB000FF0A0881802F90E00E94ED29892B11F0D3
:104FC000E701F3CF0D3239F47E0182E0E80EF11CE7
:104FD000098111E008C00B3229F47E0192E0E90E4C
:104FE000F11C098110E0E701219743E050E060E700
:104FF00070E0CE010E94F629892BC1F4239645E08A
:1050000050E06BE670E0CE010E94F629892B09F48E
:105010002596C114D10419F0F601D183C083111172
:10502000F6C060E070E080E89FE7FAC043E050E03F
:1050300068E670E0CE010E94F629892B59F4C1146C
:10504000D10409F4E9C0F2E0EF0EF11CF601F1829F
:10505000E082E2C020E030E0A901C0E0D0E0F7014A
:1050600080EDA82EA00E89E08A1530F1912F926074
:10507000B92E812F887012FF04C0811124C021969F
:1050800022C081112197A5E0B0E00E94302CDC0104
:10509000CB01880F991FAA1FBB1F9C01AD012A0DD0
:1050A000311D411D511D283989E93807480789E11B
:1050B000580748F0166006C09EEFA9120AC013FDFB
:1050C00040C01860B12E8FEFE81AF80A00811B2D3E
:1050D000C6CF802F8F7D8534A1F580818D3211F46C
:1050E000106106C08B3221F0319661E070E004C09F
:1050F0008181329662E070E080538A3018F0E61BBE
:10510000F70B1FC060E070E060389CE079075CF44A
:10511000DB01AA0FBB1FAA0FBB1F6A0F7B1F660F05
:10512000771F680F711D3196DF0111978C918053A5
:105130008A3050F314FF03C0719561957109C60F51
:10514000D71F11FF08C0C114D10429F0CF01019766
:10515000F60191838083CA01B9010E94D32A212FCD
:105160002370233019F04B015C0106C04B015C0138
:10517000B7FAB094B7F8B09420E030E0A901C501C7
:10518000B4010E94CE2A882309F43EC0D7FF06C08E
:10519000D195C195D10907E810E002C00FE910E0F0
:1051A0006801F8E1CF1AD10890E2E92EF12CCE1572
:1051B000DF0574F0F8012591359145915491C501B1
:1051C000B4010E94342B4B015C01CE19DF09EFCFF3
:1051D00004501109F594E7940C151D0541F78A2D2B
:1051E000880F8B2D881F8F3F49F020E030E0A90108
:1051F000C501B4010E94CE2A811106C082E290E06E
:105200009093D0038093CF03C501B40109C060E03F
:1052100070E080E89FEF04C060E070E080EC9FE702
:10522000CDB7DEB7ECE00C945D2C283008F027E019
:105230003327DA01990F311D87FD916000966105D2
:10524000710539F432602E5F3D9330E32A95E1F722
:1052500008959F3F30F080387105610509F03C5F8B
:105260003C5F3D93913008F08068911DDF93CF93B0
:105270001F930F93FF92EF92192F987F9695E92F26
:1052800096959695E90FFF27E350FF4F992733270F
:10529000EE24FF24A701E70105900894079428F461
:1052A000360FE71EF81E491F511D660F771F881F16
:1052B000991F0694A1F70590079428F4E70EF81EAD
:1052C000491F561FC11D770F881F991F661F06941F
:1052D000A1F70590079428F4F80E491F561FC71F21
:1052E000D11D880F991F661F771F0694A1F705909F
:1052F000079420F4490F561FC71FD81F990F661F28
:10530000771F881F0694A9F784911095177041F0B4
:10531000D695C79557954795F794E7941A95C1F791
:10532000E3EAF0E0689415901591359165919591B7
:1053300005907FE27395E118F10A430B560BC90BF8
:10534000D009C0F7E10CF11E431F561FC91FD01D25
:105350007EF4703311F48A95E6CFE894015030F072
:10536000080F0AF40027021708F4202F2395022FB4
:105370007A3328F079E37D932A95E9F710C07D937D
:105380002A9589F6069497956795379517951794FA
:10539000E118F10A430B560BC90BD00998F023957D
:1053A0007E9173957A3308F070E37C932013B8F7FD
:1053B0007E9170617D9330F0839571E37D9370E30E
:1053C0002A95E1F71124EF90FF900F911F91CF9153
:1053D000DF91992787FD9095089591110C94A12B49
:1053E000803219F089508550C8F70895FB01DC011F
:1053F0004150504088F08D9181341CF08B350CF475
:10540000805E659161341CF06B350CF4605E861B28
:10541000611171F3990B0895881BFCCFFC01059075
:10542000615070400110D8F7809590958E0F9F1FA6
:105430000895FC016150704001900110D8F78095EB
:1054400090958E0F9F1F0895DC01FC01672F7191CD
:105450007723E1F7329704C07C916D93708362915A
:10546000AE17BF07C8F308950F931F93CF93DF9331
:10547000FB01238121FD03C08FEF9FEF2CC022FF92
:1054800016C046815781248135814217530744F461
:10549000A081B1819D012F5F3F4F318320838C9389
:1054A000268137812F5F3F4F3783268314C08B01BE
:1054B000EC01FB010084F185E02D0995892BE1F6D3
:1054C000D80116968D919C911797019617969C93EB
:1054D0008E931697CE01DF91CF911F910F91089572
:1054E000FA01AA27283051F1203181F1E8946F9315
:1054F0006E7F6E5F7F4F8F4F9F4FAF4FB1E03ED0BB
:10550000B4E03CD0670F781F891F9A1FA11D680F58
:10551000791F8A1F911DA11D6A0F711D811D911D8B
:10552000A11D20D009F468943F912AE0269F112400
:105530003019305D3193DEF6CF010895462F477064
:10554000405D4193B3E00FD0C9F7F6CF462F4F70BF
:10555000405D4A3318F0495D31FD4052419302D01D
:10556000A9F7EACFB4E0A6959795879577956795C3
:10557000BA95C9F700976105710508959B01AC01C3
:105580000A2E06945795479537952795BA95C9F7EA
:10559000620F731F841F951FA01D08950E94102B7A
:1055A00008F481E00895E89409C097FB3EF49095D3
:1055B0008095709561957F4F8F4F9F4F9923A9F0EC
:1055C000F92F96E9BB279395F6958795779567957B
:1055D000B795F111F8CFFAF4BB0F11F460FF1BC0BF
:1055E0006F5F7F4F8F4F9F4F16C0882311F096E952
:1055F00011C0772321F09EE8872F762F05C0662300
:1056000071F096E8862F70E060E02AF09A95660FB8
:10561000771F881FDAF7880F9695879597F9089571
:10562000990F0008550FAA0BE0E8FEEF16161706B3
:10563000E807F907C0F012161306E407F50798F01B
:10564000621B730B840B950B39F40A2661F0232B34
:10565000242B252B21F408950A2609F4A140A695B0
:105660008FEF811D811D08950E94472B0C94BB2B49
:105670000E94AD2B38F00E94B42B20F0952311F03E
:105680000C94A42B0C94AA2B11240C94EF2B0E94A5
:10569000CC2B70F3959FC1F3950F50E0551F629F7F
:1056A000F001729FBB27F00DB11D639FAA27F00D7B
:1056B000B11DAA1F649F6627B00DA11D661F829FA2
:1056C0002227B00DA11D621F739FB00DA11D621F87
:1056D000839FA00D611D221F749F3327A00D611DA4
:1056E000231F849F600D211D822F762F6A2F112486
:1056F0009F5750409AF0F1F088234AF0EE0FFF1FB9
:10570000BB1F661F771F881F91505040A9F79E3F0F
:10571000510580F00C94A42B0C94EF2B5F3FE4F325
:10572000983ED4F3869577956795B795F795E79565
:105730009F5FC1F7FE2B880F911D9695879597F96E
:10574000089599278827089597F99F6780E870E062
:1057500060E008959FEF80EC089500240A941616E7
:10576000170618060906089500240A94121613064F
:10577000140605060895092E0394000C11F48823DD
:1057800052F0BB0F40F4BF2B11F460FF04C06F5FF9
:105790007F4F8F4F9F4F089557FD9058440F551FCF
:1057A00059F05F3F71F04795880F97FB991F61F0A3
:1057B0009F3F79F087950895121613061406551F1A
:1057C000F2CF4695F1DF08C0161617061806991F86
:1057D000F1CF86957105610508940895E894BB277B
:1057E00066277727CB0197F90895DC01CB01FC01EF
:1057F000F999FECF06C0F2BDE1BDF89A319600B42A
:105800000D9241505040B8F70895F999FECF92BDDE
:1058100081BDF89A992780B50895A8E1B0E042E0EB
:1058200050E00C94F72BDC01CB0103C02D910E94BA
:105830001E2C41505040D0F70895262FF999FECFE5
:105840001FBA92BD81BD20BD0FB6F894FA9AF99A9D
:105850000FBE019608950E941D2C272F0C941E2C1C
:105860000E94722CA59F900DB49F900DA49F800D57
:10587000911D112408952F923F924F925F926F9243
:105880007F928F929F92AF92BF92CF92DF92EF92D0
:10589000FF920F931F93CF93DF93CDB7DEB7CA1B51
:1058A000DB0B0FB6F894DEBF0FBECDBF09942A887C
:1058B000398848885F846E847D848C849B84AA8424
:1058C000B984C884DF80EE80FD800C811B81AA81B1
:1058D000B981CE0FD11D0FB6F894DEBF0FBECDBF7C
:1058E000ED010895A29FB001B39FC001A39F700D69
:1058F000811D1124911DB29F700D811D1124911DD8
:10590000089597FB072E16F4009407D077FD09D071
:105910000E94C62C07FC05D03EF4909581959F4FC0
:105920000895709561957F4F0895A1E21A2EAA1BE4
:10593000BB1BFD010DC0AA1FBB1FEE1FFF1FA2173F
:10594000B307E407F50720F0A21BB30BE40BF50B3C
:10595000661F771F881F991F1A9469F760957095C5
:10596000809590959B01AC01BD01CF0108950E94E7
:10597000722C332312F48A1B9B0B0C94C12C0E94B3
:10598000722CB7FF0895821B930B0895AA1BBB1BB3
:1059900051E107C0AA1FBB1FA617B70710F0A61B2F
:1059A000B70B881F991F5A95A9F780959095BC0150
:1059B000CD010895EE0FFF1F0590F491E02D09949D
:1059C0005058BB27AA270E94F82C0C94BB2B0E948E
:1059D000AD2B38F00E94B42B20F039F49F3F19F41E
:1059E00026F40C94AA2B0EF4E095E7FB0C94A42B60
:1059F000E92F0E94CC2B58F3BA176207730784076C
:105A0000950720F079F4A6F50C94EE2B0EF4E095B2
:105A10000B2EBA2FA02D0B01B90190010C01CA0168
:105A2000A0011124FF27591B99F0593F50F4503E13
:105A300068F11A16F040A22F232F342F4427585F05
:105A4000F3CF469537952795A795F0405395C9F71D
:105A50007EF41F16BA0B620B730B840BBAF09150D5
:105A6000A1F0FF0FBB1F661F771F881FC2F70EC074
:105A7000BA0F621F731F841F48F487957795679547
:105A8000B795F7959E3F08F0B0CF9395880F08F033
:105A90009927EE0F9795879508950E94612D0C9494
:105AA000BB2B0E94B42B58F00E94AD2B40F029F480
:105AB0005F3F29F00C94A42B51110C94EF2B0C9404
:105AC000AA2B0E94CC2B68F39923B1F3552391F3B1
:105AD000951B550BBB27AA2762177307840738F05D
